:020000040800F2
:10000000A80B0020A9010008FD2A0008F925000816
:10001000052A000881140008072F000800000000CE
:10002000000000000000000000000000872E000813
:100030008314000800000000852E0008892E0008A7
:10004000C3010008C3010008C3010008C301000880
:10005000C3010008C3010008C3010008C301000870
:10006000C3010008C3010008C3010008C301000860
:10007000C3010008C3010008C3010008C301000850
:10008000C3010008C3010008C3010008C301000840
:10009000C3010008C3010008C3010008C301000830
:1000A000C3010008C3010008C3010008C301000820
:1000B000C3010008C3010008C3010008C301000810
:1000C000C3010008C3010008C3010008C301000800
:1000D000C3010008C3010008C3010008C3010008F0
:1000E000C3010008C3010008C301000800F002F8C2
:1000F00000F04AF80AA090E8000C82448344AAF178
:100100000107DA4501D100F03FF8AFF2090EBAE875
:100110000F0013F0010F18BFFB1A43F0010318473B
:10012000BC390000DC390000103A24BF78C878C11F
:10013000FAD8520724BF30C830C144BF04680C60ED
:10014000704700000023002400250026103A28BF35
:1001500078C1FBD8520728BF30C148BF0B60704739
:10016000662903F0C280732900F0AB83002070473A
:100170001FB500F0DDFB04000020002103F014F89F
:10018000E0601FBD10B510BD00F0D2FC1146FFF7B6
:10019000EFFF02F0EDFF00F0F0FC03B4FFF7F2FF19
:1001A00003BC00F033FD00000948804709480047C0
:1001B000FEE7FEE7FEE7FEE7FEE7FEE7FEE7FEE717
:1001C000FEE7FEE704480549054A064B7047000074
:1001D000052F0008ED000008A8050020A80B00204E
:1001E000A8070020A80700200FB41CB5074B06AADB
:1001F0007B4469460090059800F039FB0020694671
:1002000000F048FB1CBC5DF814FB0000A1060000D8
:100210002DE9F0410E460446002020622046E168A8
:10022000884730B3252805D0D4E901219047206ABA
:10023000401CF2E7E168204600278847050018D0F7
:10024000A5F14100192802D820354FF40067324645
:10025000294620462760FFF783FF40B1012804D0DC
:10026000F61D26F007060836D8E7361DD6E72846DD
:10027000DAE7206ABDE8F08170B50C460546012A30
:1002800005D02878800600D5EA69002302E0012322
:1002900005E05B1C934202D2E05C0028F9D1A8691A
:1002A000E618C01AA861286A184428622846AFF3E5
:1002B000008004E0D5E9012114F8010B9047B44215
:1002C000F8D32846AFF3008070BD40EA010310B5B3
:1002D0009B070FD1042A0DD310C808C9121F9C42D6
:1002E000F8D020BA19BA884201D9012010BD4FF0C8
:1002F000FF3010BD1AB1D30703D0521C07E0002015
:1003000010BD10F8013B11F8014B1B1B07D110F871
:10031000013B11F8014B1B1B01D1921EF1D1184674
:1003200010BD032A40F2308010F0030C00F015805D
:1003300011F8013BBCF1020F624498BF11F801CBE8
:1003400000F8013B38BF11F8013BA2F1040298BF4D
:1003500000F801CB38BF00F8013B11F0030300F0B7
:10036000B482083AC0F0088051F8043B083A51F8CA
:1003700004CBA0E80810F5E7121D5CBF51F8043B60
:1003800040F8043BAFF30080D20724BF11F8013BD3
:1003900011F801CB48BF11F8012B24BF00F8013B35
:1003A00000F801CB48BF00F8012B70474FF0000266
:1003B0000429C0F0128010F0030C00F01B80CCF177
:1003C000040CBCF1020F18BF00F8012BA8BF20F8E5
:1003D000022BA1EB0C0100F00DB85FEAC17C24BF39
:1003E00000F8012B00F8012B48BF00F8012B7047E3
:1003F0004FF0000200B5134694469646203922BFBE
:10040000A0E80C50A0E80C50B1F12001BFF4F7AF08
:10041000090728BFA0E80C5048BF0CC05DF804EBEA
:10042000890028BF40F8042B08BF704748BF20F858
:10043000022B11F0804F18BF00F8012B7047704756
:100440007047704770472DE9FF4F0C461E464FF02E
:10045000FF378BB0D2E90001DDF860800A908A4650
:10046000C1F30A5505B93D46002108464FF000008A
:10047000BAF1000F00F4400005DA00EB80004FF401
:10048000400101EA50004FEA9059B9F1010F00DD37
:10049000B9460A9850EA4A000ED044F61050A5F228
:1004A000FF3545432F14B8F1000F1ED07542291EA9
:1004B0001EDDC9F100021CE0B8F1010F4FF0000091
:1004C00001D0302103E0F24305E02154401CB0424A
:1004D000FBDB30460022002121540B99C1F8088033
:1004E000C1E900200FB0BDE8F08FBD1B6D1CDEE739
:1004F0004A4600DA694206A800F0A4FA06AB93E87F
:10050000070003AB83E8070050460A9900F085FB1B
:100510008DE80700A0F500501F3800900398002DCB
:100520000ADD42F21F014A460844002303A9039052
:10053000684600F0EEFD09E0A0F500504A461F387D
:10054000002303A90390684600F0F8FD8DE807003A
:100550000004000C03D04FF0FF30410800E01046CB
:10056000B8F1000F03D00022009215461EE0751E60
:1005700005D400F0E1F9303262556D1EF9D5B3466D
:100580000122084302D000227F1C04E0207830289A
:1005900001D100227F1E002A099784D01DE0112D71
:1005A00007DA00F0C9F9303262556D1C50EA0102D9
:1005B000F5D1084302D00098C8B10EE00021681EB2
:1005C00005E0235C625C63542254401E491C814256
:1005D000F7DBAB46A81B401E0990002004F80B0077
:1005E0000B98099AC0F80880C0E9002B7AE7112619
:1005F0004FF0000857E72DE9F04F88460446D21D1A
:1006000022F0070191B0D1E90001CDE90A0102F021
:1006100094FC02460B98C00F01D02D2007E0206803
:10062000810701D52B2002E0202101EAC000032A26
:10063000099001D0072A05DB03464146204600F019
:10064000C1F90BE12078800601D5E06900E00620C1
:10065000B8F1650F814606D0B8F1660F18D0B8F131
:10066000670F70D131E00020B9F1110F009001DB6C
:10067000112301E009F101030AAA01A90CA8FFF75F
:10068000E2FEDDE90C70002609F10105834647E032
:1006900001204B4600904FF000470AAA01A90CA880
:1006A000FFF7D1FEDDE90DB00C995D46002610B9CB
:1006B00009F101000D18B9EB050003D4C0F1FF36B4
:1006C00009F10105A5EB09002BE0B9F1010F01DAF1
:1006D0004FF001090020B9F1110F0090484601DDEB
:1006E000112300E003460AAA01A90CA8FFF7ABFEFC
:1006F000DDE90C704D4600268346207800070AD4B9
:10070000AB4500DA5D4601A8012D04DD411911F861
:10071000011C302907D04F4502DA17F1040F04DA23
:10072000012082460FE06D1EEEE7002F02DCED1B7C
:100730003E4403E0781CA84200DD7D1CB81B00F19C
:10074000010A4FF000472078000703D4AA4501DBD7
:100750004FF0FF3A0021B7F1004F0DF143088DF83B
:10076000431024D002202B23002F01DA7F422D23B7
:100770000A21021EA0F1010000DC5FB197FBF1FC31
:1007800097FBF1F201FB1C7C17460CF1300C08F8CA
:1007900001CDEEE7A8F1010003702188090501D51C
:1007A000452100E06521A0F1010800F8011C09982D
:1007B0000FA9A1EB0807FF1D00B10120411901EBB2
:1007C000EA70A1693844081A401EA0612078C0066A
:1007D00002D42046AFF30080099828B1D4E9012162
:1007E0009047206A401C20622078C00622D520460F
:1007F000AFF300801EE0002E04DBB34502DD01A84C
:10080000805D00E03020D4E901219047206A401C3F
:100810002062761CAAF101005FEA000A0AD100F00A
:1008200087F8C0680168405CD4E901219047206ADC
:10083000401C2062281EA5F10105DCDC07E0D4E99C
:10084000012118F8010B9047206A401C2062381ED5
:10085000A7F10107F3DC2046AFF30080032011B0BD
:1008600041E6000001694A1C02610878704700B542
:100870008FB0CDE901310021059105497944CDE9D9
:10088000031011466846FFF7C3FC0FB000BD00001F
:10089000E5FFFFFF0A6802F8010B0A60704710B518
:1008A000436913B1AFF3008001E0FFF7E5FC0120DD
:1008B00010BD127800F124010A7000224A70012252
:1008C000EDE711684FF0FF32E9E710B5203AC0F0CC
:1008D0000B80B1E81850203AA0E81850B1E8185041
:1008E000A0E81850BFF4F5AF5FEA027C24BFB1E87E
:1008F0001850A0E8185044BF18C918C0BDE81040EF
:100900005FEA827C24BF51F8043B40F8043B08BFF7
:100910007047D20728BF31F8023B48BF11F8012BBE
:1009200028BF20F8023B48BF00F8012B70470000A9
:10093000004870476405002030B5B0F10A024FEA64
:10094000900E71F100034EEA817EB0EB0E0061EB78
:1009500091014FEA101E4EEA017E10EB0E0041EBB2
:1009600011114FEA102E4EEA016E10EB0E0041EB12
:1009700011214FEA104E4EEA014E10EB0E0041EBF2
:100980001141401841F100014FEAD00040EA4170A6
:100990004FEAD10110EB80054FEA810444EA9074DC
:1009A00044EB01046D1944EB0404521BA3414FF0C6
:1009B000000348BF0A3200D530BD401C41F10001A0
:1009C00030BD00002DE9F0411F46044603260168B2
:1009D000072A01F4006004DB08B116A505E016A59E
:1009E00003E008B115A500E015A521F01000206076
:1009F000A069C01EA0610FB1401EA0612046AFF3E8
:100A000000804FB1D4E9012138469047206A401C4C
:100A10002062C01C206206E0206AFAE7D4E90121C6
:100A200015F8010B9047761EF8D22046AFF30080F0
:100A3000BDE8F0814E414E006E616E00494E4600A9
:100A4000696E66002DE9F047814616468AB0354842
:100A500078440DC88DE80D0032487844801C03AC02
:100A60000DC884E80D0041F69B300844372190FB07
:100A7000F1F290FBF1F5A5F1800501FB12041B3C9E
:100A800002D56442012000E00020DFF898A08046F3
:100A90000027FA44AAF1BE0A0EE0E0070AD0324667
:100AA000684607EB470101230AEB810100F046FB92
:100AB0008DE8070064107F1C002CEED1194F7F4495
:100AC000AE3F19E0E80715D007EB04100DF1180A46
:100AD00090E80E008AE80E00C068F04201D1981933
:100AE00008903246012306A903A800F027FB03ABB8
:100AF00083E807006D10641C002DE3D14FF0010363
:100B000032466946B8F1000F03A802D000F001FB9D
:100B100001E000F013FBC9E90001C9F808200AB0A0
:100B2000BDE8F087343000000048704744050020DD
:100B30007546FFF7F9FFAE4605006946534620F0BB
:100B40000700854618B020B5FFF73CFBBDE8204004
:100B50004FF000064FF000074FF000084FF0000B79
:100B600021F00701AC46ACE8C009ACE8C009ACE82C
:100B7000C009ACE8C0098D46704710B50446AFF314
:100B800000802046BDE81040FFF707BB4FF0013C56
:100B900050F8042B51F8043B9A4221D1A2EB0C03EC
:100BA000934313EACC1317D150F8042B51F8043BAC
:100BB0009A4215D1A2EB0C03934313EACC130BD149
:100BC00050F8042B51F8043B9A4209D1A2EB0C03D4
:100BD000934313EACC13DBD04FF00000704700BF03
:100BE000D01A01BAB1FA81F101F0180122FA01F02C
:100BF000CB40C1F12001DBB2C0B2C01A2CFA01F324
:100C0000D11A914311EAC311E6D170470149182066
:100C1000ABBEFEE72600020070475FEA400C08BF4B
:100C200091F0000F4FEA8C234FEAC12243EA515161
:100C30004FEA1C5018BF00F5F0404FEA300018BFD3
:100C400041F000415FEA6C5C00F02980BCF1FF3F9D
:100C500008BF40F080407047130C06BF12044FF0ED
:100C6000100C4FF0000C130E04BF12020CF1080C14
:100C7000130F04BF12010CF1040C930F04BF920078
:100C80000CF1020CD30F04BF52000CF1010C114601
:100C90004FF00002A0F11F00A0EB0C00704711F014
:100CA000004F08BF704731F000413FF4D5AF0B0C47
:100CB00006BF09044FF0100C4FF0000C0B0E04BFE0
:100CC00009020CF1080C0B0F04BF09010CF1040C14
:100CD0008B0F04BF89000CF1020CCB0F04BF49003D
:100CE0000CF1010CCCF12003A0EB0C0022FA03F371
:100CF00002FA0CF241EA030100F10100704720F012
:100D00007F4C80EA030023F07F47ACEB070303F539
:100D10007C5300F0004003F1FF032DE980494FEAC6
:100D2000154B09B44FEA144325EA0B4E24EA034855
:100D30000FF2042606EB132749083E785FEA3202D9
:100D400003FB0667C7F5000707FB06F64FEA5437B3
:100D50004FEAD64606F1020607FB066CCCF1005CB2
:100D60004FEA1C472CEA074C07FB06F40CFB06F580
:100D700004EB15464FEA961634BF00204FF00040B2
:100D80004FEAD13706FB07FC4FEA1C4C0CFB0BF774
:100D9000D21B03FB0CF761EB07010CFB0EF7B0EB6A
:100DA000074072EB17420CFB08F734BFA2EB074277
:100DB000B2EB074261EB17414FEA0C444FEA91074F
:100DC00006FB07FC4FEA1C4C0CFB0BF7B0EBC740D3
:100DD00072EB573203FB0CF734BFA2EBC742B2EB06
:100DE000C74261EB57310CFB0EF7B0EBC70072EB5B
:100DF00057720CFB08F734BFA2EBC702B2EBC70275
:100E000061EB5771039F4FEA816141EA921104EB54
:100E1000CC044FEAD1374FEA826206FB07FC42EA74
:100E200090124FEA80604FEA1C4C0CFB0BF7D21B70
:100E300003FB0CF761EB07010CFB0EF7B0EB07406F
:100E400072EB17420CFB08F734BFA2EB0742B2EB80
:100E5000074261EB17414FEA8C554FEA910704EBCB
:100E60009C2406FB07FC4FEA1C4C0CFB0BF7B0EB79
:100E7000C74072EB573203FB0CF734BFA2EBC742FB
:100E8000B2EBC74261EB57310CFB0EF7B0EBC7007A
:100E900072EB57720CFB08F734BFA2EBC702B2EB40
:100EA000C70261EB577115EB4C254FEA816141EAAE
:100EB00092114FEA82624FEAD13742EA901206FB62
:100EC00007FC44F100044FEA80604FEA1C4C0CFB25
:100ED0000BF7D21B03FB0CF761EB07010CFB0EF7C2
:100EE000B0EB074072EB17420CFB08F734BFA2EBE4
:100EF0000742B2EB074261EB174115EB1C154FEAB5
:100F0000813141EA92414FEA823242EA90424FEA0D
:100F100080304FEA0C7644F1000448EA03434EEA7D
:100F20000B484FF0000EB2EB080C71EB030724BF27
:100F3000624639464EEB0E0E4FF0000B0018524140
:100F400049414BEB0B0BB2EB080C71EB03077BF148
:100F5000000B24BF624639464EEB0E0E4FF0000BDD
:100F60000018524149414BEB0B0BB2EB080C71EBF3
:100F700003077BF1000B24BF624639464EEB0E0E91
:100F800051EA020718BF46F0010616EB0E7655F13E
:100F9000000254F1000103D5BDE88901BDE80088D5
:100FA000BDE88901BDE80048B619524141EB010195
:100FB000A3F10103704780807F7E7D7C7B7A797806
:100FC000777676757473727171706F6E6E6D6C6C0E
:100FD0006B6A6A69686867666665646463636261B0
:100FE0006160605F5F5E5E5D5D5C5C5B5B5A5A5931
:100FF000595858575756565555555454535352529D
:101000005251515050504F4F4F4E4E4D4D4D4C4CF4
:101010004C4B4B4B4A4A4A4949494848484747473D
:10102000474646464545454444444443434343427A
:10103000424242414141002B9C4630D477002BD0A4
:101040001CB54FEA370703B44FF010004FF0100102
:10105000BAF1000F06D0BCF1000FDCBF40F0080071
:1010600040F008014FF000000FBCBDE810400BF14C
:10107000010BBBF1010F08BF5FEA170722BF12F196
:10108000010211F101014FF0004143F1000300F0B2
:10109000004043EA00007047F9D35708D0E746EA1A
:1010A000064613F1400F4FEA16461FDD13F1200FDD
:1010B000DFBF16430A46002120335B42BED0C3F196
:1010C000200746EA064602FA07F74FEA164646EABE
:1010D0000706C3F1200722FA03F201FA07F721FA03
:1010E00003F14FF0000342EA0702A7E746EA0206CF
:1010F00046EA06464FEA164646EA0106BCBF46EAFD
:101100000646360C4FF000034FF000024FF000018E
:1011100094E72DE9804C9A46934670B491E83800E4
:1011200007C831EA400C48BF34EA430C03D5FFF747
:10113000E6FDFFF780FFF0BCBDE8008C2DE9804C98
:101140009A46934670B491E8380007C810F0804F73
:1011500008BF13F0804F03D100F005F8FFF76BFFD5
:10116000F0BCBDE8008C20F07F4780EA030023F04C
:101170007F4C07EB0C03A3F57C5300F00040A3F178
:10118000FE0392F0000F00F0B38095F0000F00F026
:1011900077802DE901494FEA11404FEA144621EAD0
:1011A000004800FB06FC24EA064708FB06F607FB9E
:1011B00008F800FB07F718EB06484CEB164C4FEA13
:1011C000124B18EB07484FEA15464CEB174022EA42
:1011D0000B4E0BFB06FC25EA06470EFB06F607FB4B
:1011E0000EFE0BFB07F71EEB064E4CEB164C4FF0BA
:1011F00000061EEB074E4CEB174B18EB0B0840F1AB
:10120000000018EB0E0B58EB000840F100008F1A9D
:101210004FF000013CBFC943661B14BFB5EB040C83
:1012200000213CBFC943F61B4FEA17444EEA8E0E1D
:1012300027EA04454FEA1C4704FB07622CEA074CE7
:1012400005FB07F70CFB05F604FB0CFC16EB074649
:1012500042EB174216EB0C4642EB1C421BEB060618
:1012600058EB0202414146EA9E0601D5BDE80189DC
:10127000B619524141EB0101A3F10103BDE8018917
:101280004FEA14454FEA114724EA054621EA074C84
:1012900005FB07F406FB07F70CFB06F105FB0CFC4E
:1012A00011EB074144EB17444FEA124711EB0C4195
:1012B00044EB1C4422EA074C05FB07F206FB07F748
:1012C0000CFB06F605FB0CFC16EB074642EB17423F
:1012D00016EB0C4642EB1C456A1854F1000148BF5E
:1012E0007047B619524141EB0101A3F10103704768
:1012F00095F0000F37D04FEA11424FEA144721EA28
:10130000024624EA074C02FB07F106FB07F70CFB39
:1013100006F402FB0CFC14EB074441EB17414FEAC7
:10132000154714EB0C4441EB1C4125EA074C02FB2A
:1013300007F506FB07F70CFB06F602FB0CFC16EBA9
:10134000074645EB174516EB0C4645EB1C421219B8
:1013500051F1000148BF7047B619524141EB0101FC
:10136000A3F1010370474FEA14454FEA114724EAFD
:10137000054621EA074C05FB07F106FB07F70CFBC6
:1013800006F24FF0000605FB0CFC12EB074241EBA6
:10139000174112EB0C4251EB1C4148BF70479218A9
:1013A00041EB0101A3F101037047000070B5044651
:1013B00000688168C943C90717D1816821F001011C
:1013C000816000F0A7FB05460AE000BF00F0A2FB29
:1013D000401B022804D920688068C043C00706D09B
:1013E00020688068C043C007F0D0002070BDA06AAC
:1013F00040F01000A062E06A40F00100E0620120CD
:1014000070BD0000F8B500260446009600688168AB
:10141000C943C9072DD0816841F001018160164898
:1014200016490068B0FBF1F000E0401E0090002873
:10143000FBD100F06FFB054616E000BF00F06AFB31
:10144000401B022810D920688068C043C0070BD019
:10145000A06A40F01000A062E06A40F00100E06283
:1014600084F824600120F8BD20688068C043C0076C
:10147000E4D10020F8BD00003800002040420F00F9
:10148000FEE7704772B6FEE7F8B50024009490F8C6
:1014900024202546012A12D0012280F824204A68FF
:1014A0001F23072A0DD20668776B521E02EB8202B9
:1014B00093409F430B6893401F43776319E00220DA
:1014C000F8BD06680D2A0AD2376BD21F02EB8202E2
:1014D00093409F430B6893401F43376309E0F76ACB
:1014E0000D3A02EB820293409F430B6893401F43E7
:1014F000F7620A68072306680A2A0AD3F7680A3AD5
:1015000002EB420293409F438B6893401F43F76076
:1015100008E0376902EB420293409F438B68934097
:101520001F4337610A68102A01D0112A20D1124BBB
:1015300002689A4217D193681B0219D4936843F446
:10154000000393600968102912D10C490C4A0968FC
:10155000B1FBF2F101EB8101490000E0491E00916D
:101560000029FBD104E0816A41F02001816201245D
:1015700080F824502046F8BD0024014038000020A7
:1015800040420F000068C06C704700002DE9F04138
:101590004FF0000704003D467ED0A06A002628B91F
:1015A000E66284F82460204600F07EF82046FFF7CB
:1015B000FDFEA16AC90600D420B1A06A40F0100067
:1015C000A06269E0A16A21F4885141F00201A162A0
:1015D0006268E169237B0A4347EA43010A43A16841
:1015E0004FF48077B94209D0012907D05FF000019C
:1015F00094F814C0BCF1010F02D00AE03946F7E7B5
:10160000F3B1A36A43F02003A362E36A43F001034A
:10161000E3622368D3F804C02CF4694C4CEA010C53
:10162000C3F804C021688B68DFF870C003EA0C03BC
:1016300013438B60A168B9420BD0012909D00CE09B
:10164000DFF85CC0A3690CEB43330B4343F4006148
:10165000DFE7218A0D05A5F580152168CB6A23F403
:1016600070032B43CB62216889680E4B194091426D
:1016700008D1E662A16A21F0020141F00101A162F4
:10168000BDE8F081A06A20F0020040F01000A062E6
:10169000E06A40F00100E0620120F1E7FDF7E1FFC0
:1016A00000E0FFFFFE0E1FFF00B585B00021009196
:1016B00001910291039100680E49884218D10E48A9
:1016C000816941F400718161816901F400710491C3
:1016D000816941F0040181618069694600F004007C
:1016E00004902020009003200190044800F018F995
:1016F00005B000BD00240140001002400008014078
:101700002DE9F84300270D460446009700F002FA41
:10171000804620688168C90508D5A06A40F020008D
:10172000A06284F824700120BDE8F8834168C905EF
:1017300003D4C06A10F4700F2AD0022000F014FC09
:101740003B490968B1FBF0F62068036939490B424F
:101750004FEA61014FEAA1121FD1C3684FEA611C31
:1017600013EA0C0F19D103690B4225D1C06810424E
:1017700022D1142023E0681C0AD02DB100F0CAF950
:10178000A0EB0800A84203D920680068800725D58F
:10179000206800688007EED52DE003690B4202D176
:1017A000C168114206D0026923490A4206D1C068C5
:1017B000084203D1542002E0292000E0FC204643E7
:1017C000009816E0681C11D02DB100F0A3F9A0EB31
:1017D0000800A8420AD90098B04207D2A06A40F097
:1017E0000400A06284F8247003209DE70098401C48
:1017F0000090B042E6D321686FF012000860A06A42
:1018000040F40070A06220688068C0F3424007285E
:101810000CD1207B50B9A06A20F48070A062A06A2D
:10182000C00403D4A06A40F00100A06200207BE75E
:1018300038000020244992244992240070B50446BF
:1018400090F8240001280DD0012084F824002046BF
:10185000FFF7D8FD02004FF0000005D084F8240007
:10186000104670BD022070BDA16A40F20123994369
:1018700041F48071A1621F4D23681F49AB4218D10A
:101880000E6816F4702F14D0A66A46F48016A6626D
:101890000E68760505D5A66A26F4005646F48056ED
:1018A000A662A66AF6040AD5E66A26F00606E6628D
:1018B00006E0A66A26F48016A6625E68E9E7E062A2
:1018C00084F824006FF00200186020688368C3F376
:1018D0004243072B05D1A84208D1096811F4702FA3
:1018E00004D0816841F480118160B9E7816841F4D6
:1018F000A001F9E7002801400424014070B5044626
:1019000000F008F90546601C02D004480078044441
:1019100000F000F9401BA042FAD370BD2C0000205B
:101920002DE9F84FDFF8B8910024A9F1040B234604
:101930000F2709F1040AABF1040EC9E00125A54007
:101940002A40AA427DD1674ED1F804C0ACEB06080C
:10195000B44532D014DCBCF1030F3AD009DCBCF141
:10196000000F2AD0BCF1010F1CD0BCF1020F31D105
:101970001DE0BCF1110F17D0BCF1120F2AD119E0F4
:10198000B8F5881F19D006DCB8F5803F15D0B8F53A
:10199000801F1FD111E0B8F5001F0ED0B8F5041F4D
:1019A00018D10AE0CB6815E0CB681B1D12E0CB68AC
:1019B00008330FE0CB680C330CE08B682BB1012BA4
:1019C0004FF0080303D0456104E0042302E0056101
:1019D00000E00023FF2A01D8064601E000F10406DA
:1019E0004FEA840501D9A5F12005D6F8008007FA51
:1019F00005FC28EA0C0803FA05F548EA0508C6F8CC
:101A000000804D68ED0062D5374DAE6946F00106A5
:101A1000AE61AD6924F0030605F001050095334D74
:101A200006EB050CDCF80850A607360F07FA06F897
:101A300025EA0805DFF8B880404503D14FF00008DB
:101A400017E044E0DFF8AC80404502D14FF00108D8
:101A50000FE0DFF8A480404502D14FF0020808E013
:101A6000DFF89880404502D14FF0030801E04FF0C5
:101A7000040808FA06F848EA0508CCF808804D681A
:101A8000D9F80060ED024D4601D5164300E09643BB
:101A90002E604D68DAF80060AD02554601D5164358
:101AA00000E096432E604D68DBF80060AD035D46B4
:101AB00001D5164300E096432E604D68DEF80060C5
:101AC000ED03754601D5164300E096432E60641C75
:101AD0000D682A46E5407FF431AFBDE8F88F00007D
:101AE00008040140000011100010024000000140F5
:101AF00000080140000C01400010014000140140AA
:101B00008068084000D0012070470AB10161704729
:101B10000904FBE701488068704700002C000020A2
:101B200070B5040025D094F83D00002520B984F854
:101B30003C50204600F04EF9242084F83D002068F7
:101B4000016821F0010101602068016841F4004151
:101B500001602068016821F40041016000F062FB2F
:101B60004D4A6168914201D84C4900E04C49884295
:101B700001D2012070BD4B492368B0FBF1F15E68D2
:101B800026F03F060E435E606368934206D94FF429
:101B9000967359434FF47A73B1FBF3F12368491CF0
:101BA0001E6A26F03F06314319626168914210D8DF
:101BB0004900401EB0FBF1F2521CC2F30B02042A92
:101BC00001D2042022E0B0FBF1F0401CC0F30B0076
:101BD0001CE0A268F2B301EBC10303EB0116431E44
:101BE000B3FBF6F35B1C43F480431B0549D092B36F
:101BF00001EBC10202EB0111401EB0FBF1F0401CF1
:101C0000C0F30B0040F4804040F400402168CA69F2
:101C10004CF6FF739A431043C861D4E9071001439F
:101C20002068026822F0C00211430160D4E9030178
:101C300001432068826848F2FF339A431143816070
:101C4000D4E9050108432168CA6822F0FF02104365
:101C5000C86001E00EE016E02068016841F0010173
:101C600001602564202084F83D00256384F83E50FF
:101C7000002070BD01EB4106431EB3FBF6F35B1C75
:101C8000B3E70120C2E701EB4101401EB0FBF1F0D8
:101C9000401CC0F30B00B7E7A086010080841E0043
:101CA00000093D0040420F002DE9F84F1F469046C5
:101CB0008A460446DDF82890FFF72CFF054694F885
:101CC0003D0020287FD1192301224049204600955C
:101CD00000F024FD002876D194F83C00012872D051
:101CE000012084F83C0020680168C90703D101681D
:101CF00041F0010101602068016821F40061016088
:101D0000212084F83D00102084F83E00002626643F
:101D1000C4F824806785608D20852D48E0622B46BD
:101D20004A465146204600F07FFC90B92068416940
:101D30008069009036E02A464946204600F094FD2E
:101D400050B1206C042804D12068016841F400716E
:101D500001600120BDE8F88F606A216800780861A1
:101D6000606A401C6062618D491E6185218D491E3B
:101D700089B2218522685369DB435B070BD451B1DB
:101D800000781061606A401C6062608D401E608552
:101D9000208D401E20852A464946204600F092FCB0
:101DA0000028CED1208D0028C5D154F83D0B016804
:101DB00041F400710160202004F81E09E67766777F
:101DC0000020C7E7FFE70220C4E700000200100080
:101DD0000000FFFF10B586B0002100910191029133
:101DE000039100680F4988421AD10F4CA06940F056
:101DF0000800A061A069694600F008000490C020B6
:101E0000009012200190032003900848FFF788FDFE
:101E1000E06940F40010E061E06900F40010049013
:101E200006B010BD0054004000100240000C0140FC
:101E30000248816802781144816070472C000020BC
:101E4000074810B5016841F010010160032000F05F
:101E500067F80F2000F006F800F024F8002010BD0D
:101E60000020024070B50D4D04464FF47A71287879
:101E7000B1FBF0F00A490968B1FBF0F000F0A8FBF3
:101E800048B9102C07D200222146501E00F028F835
:101E900000206C6070BD012070BD00002C0000208F
:101EA000380000200C4808B5816941F001018161CA
:101EB000816901F001010091C16941F08051C16166
:101EC000C06900F0805000900448416821F0E06152
:101ED00041F00071416008BD001002400000014067
:101EE000F0B40E4B1B680C46C3F30223C3F1070585
:101EF000042D00D90425191D072901D2002300E073
:101F0000DB1E012606FA05F1491E214099409E403C
:101F1000761E16403143F0BC01F023B80CED00E012
:101F2000064900F0070208684FF6FF03184040EA30
:101F30000220034A10430860704700000CED00E0E7
:101F40000000FA05BFF34F8F05480168054A01F408
:101F5000E06111430160BFF34F8F00BFFDE7000058
:101F60000CED00E00400FA0510B501460020234CFA
:101F7000012922D0022939D010291DD16168226897
:101F8000D20119D51E48C1F38342C903805C0AD52A
:101F900061681B4AC1F34041921E515C194AB2FB71
:101FA000F1F1484301E0184948436168490203D40C
:101FB00040000321B0FBF1F010BD226AC2F3012101
:101FC000012903D1920701D5C80310BD022905D10B
:101FD000626A920702D549F6404010BD0329FCD140
:101FE00021688903F9D54FF2244010BD00F02AF989
:101FF0006168C1F38131491C4900DBE700100240F0
:10200000E439000800127A0000093D002DE9F84388
:1020100005460078354CC00754D0E0690026C00062
:1020200008D4E06940F08050E061E069012600F0EA
:10203000805000902E480168C90512D4016880467E
:1020400041F480710160FFF765FD074605E000BFC0
:10205000FFF760FDC01B642823D8D8F80000C00536
:10206000F6D5206A10F4407021D0A98801F440719F
:1020700081421CD0206A1F49012220F440700A606E
:1020800000220A602062C00711D0FFF743FD074617
:1020900041F2883808E000BFFFF73CFDC11B414515
:1020A00002D90320BDE8F883206A8007F4D5206AAE
:1020B000696820F44070084320621EB1E06920F096
:1020C0008050E0612878800705D56068A96820F411
:1020D0004040084360602878C00605D56068E9681C
:1020E00020F48000084360600020DBE7001002401D
:1020F00000700040400442422DE9F0470F460500C1
:1021000061D0434E306800F00700B84209D2306811
:1021100020F0070038433060306800F00700B84214
:1021200051D128683B4C810712D5400703D5606820
:1021300040F4E06060602878000703D5606840F4F0
:10214000605060606068A96820F0F000084360603B
:102150002878C00728D06868012810D02168022894
:1021600010D0890700292EDA616821F003010143AC
:102170006160FFF7CFFC804641F288390DE02168AD
:102180008903EFE78901EDE7FFF7C4FCA0EB080145
:10219000494502D90320BDE8F0876068696800F00E
:1021A0000C00B0EB810FEFD1306800F00700B842AF
:1021B0000BD9306820F0070038433060306800F0F9
:1021C0000700B84201D00120E5E72878400705D58F
:1021D0006068E96820F4E0600843606028780007E0
:1021E00006D56068296920F4605040EAC10060604B
:1021F00000F038F86168084AC1F30311515CC84027
:102200000649086006480068FFF72CFE0020C2E778
:102210000020024000100240F4390008380000207D
:10222000300000200448054900684968044AC1F3A9
:102230000221515CC8407047380000200010024065
:10224000043A00080448054900684968044AC1F393
:10225000C221515CC8407047380000200010024085
:10226000043A00080E4A51680E4801F00C03042B92
:1022700011D0082B0FD10C48C1F38343C903C05CB4
:102280000AD55168084AC1F34041921E515C054A83
:102290005043B0FBF1F070470449484370470000D9
:1022A0000010024000127A00D239000800093D00F7
:1022B0002DE9F84F040070D02078C04DC00749D0F8
:1022C0006868C0F38100012807D06868C0F3810006
:1022D000022809D16868C00306D52868800339D56B
:1022E00060680028E7D035E06068B0F5803F0BD02B
:1022F00010B1B0F5A02F11D0286820F480302860EC
:10230000286820F4802002E0286840F480302860AB
:10231000606890B1FFF7FEFB06460AE0286840F4CB
:1023200080202860F0E700BFFFF7F4FB801B6428E3
:1023300073D828688003F7D50CE0FFF7EBFB06465F
:1023400005E000BFFFF7E6FB801B6428F0D8286893
:102350008003F7D420789A4E80074FF001094FF0A0
:10236000000839D5686810F00C0F07D06868C0F312
:102370008100022809D16868C00306D42868800754
:1023800014D52069012808D110E02069B0B1C6F841
:102390000090FFF7BFFB074605E00AE1FFF7BAFB35
:1023A000C01B0228C4D828688007F7D5286861694F
:1023B00020F0F80040EAC10028600DE0C6F8008077
:1023C000FFF7A8FB074604E0FFF7A4FBC01B0228A9
:1023D00023D828688007F7D4207800072CD57948BF
:1023E000A169D9B1C0F80090FFF794FB074604E05B
:1023F000FFF790FBC01B02280FD8686A8007F7D54B
:1024000071484FF4FA510068B0FBF1F0009000BF42
:102410000098411E0091FAD20EE080E0C0F80080E2
:10242000FFF778FB074604E0FFF774FBC01B0228A8
:1024300075D8686A8007F7D42078400760D5E869C6
:102440000027C00008D4E86940F08050E861E869DE
:10245000012700F0805000905C480168C90513D442
:102460000168834641F480710160FFF753FB8246A7
:1024700006E000BFFFF74EFBA0EB0A0064284ED831
:10248000DBF80000C005F5D5E06801280AD008B1E6
:10249000052813D0286A20F001002862286A20F05D
:1024A000040002E0286A40F001002862E06841F27E
:1024B000883B98B1FFF72EFB82460BE0286A40F07C
:1024C00004002862EEE700BFFFF724FBA0EB0A013F
:1024D00059455AD8286A8007F6D50CE0FFF71AFB51
:1024E000824605E0FFF716FBA0EB0A0159454CD8E0
:1024F000286A8007F6D41FB1E86920F08050E861AF
:10250000E06988B36968C1F38101022944D00228D7
:10251000C6F8608004D0FFF7FDFA044638E034E0E6
:10252000FFF7F8FA074604E0FFF7F4FAC01B0228A9
:102530002BD828688001F7D4206AB0F5803F05D1F8
:102540006868A16820F4003008436860D4E9080195
:102550000843696821F4741108436860C6F8609004
:10256000FFF7D8FA044606E025E000BFFFF7D2FAED
:10257000001B022809D828688001F7D51BE000BF9E
:10258000FFF7C8FA001B022802D90320BDE8F88F24
:1025900028688001F4D40EE00128F7D06868226A28
:1025A00000F48031914204D1616A00F470108842D5
:1025B00001D00120EAE70020E8E700000010024017
:1025C0000000424280044242380000200070004077
:1025D00010B5401EB0F1807F01D3012010BD4FF037
:1025E000E02460610F21601700F0BBFC0020A061B7
:1025F00007202061002010BDFEE701684A69D24330
:1026000052050FD46FF480624A61002140F8301FF8
:10261000202242738173026942F004020261017355
:102620000120704700207047F8B50446C06A1E4676
:102630000D461746082807D0012805D010F5803F21
:1026400002D0206B122804D12068016841F4807107
:102650000160134600224FF001112046009600F061
:102660005DF840B120680068C00502D54FF40070E5
:1026700020640320F8BD2069B0F5804F0ED00620FD
:10268000216800EAD51040F0F000086133463A4670
:102690000B49204600F08AF878B902E005F0FE0008
:1026A00000E0E8B221680861054933463A46891FCF
:1026B000204600F07BF80028DCD00120F8BD0000A7
:1026C0000800010070B516460D4604461EE020467F
:1026D000FFF793FF08B1012070BD681C16D0FFF70B
:1026E00019FA801BA84200D885B920684069C04308
:1026F00040070BD5002044F8300F20216173A073F0
:10270000216941F0200121612073E4E720684069DC
:10271000C0434007DBD4002070BD00002DE9F04726
:10272000984617460D460446C1F30746DDF820904B
:102730002AE000BFB8F1FF3F26D0FFF7EBF9A0EB8E
:102740000901414502D8B8F1000F1DD12068012EC2
:1027500016D0806925EA00000004000C12D0002089
:10276000B84211D1002044F8300F20216173A073CA
:10277000216941F02001216120730120BDE8F0872B
:102780004069E7E70120EBE72068012E0AD0806965
:1027900025EA00000004000C06D00020B842C9D091
:1027A0000020EBE74069F3E70120F7E72DE9F04768
:1027B000984616460D4604464FF000094FF0200A91
:1027C000C1F3074723E020684069C043400515D4A2
:1027D0002068016841F40071016021686FF4806035
:1027E0004861C4F8309084F83DA084F83E90216C94
:1027F00041F00401216484F83C9021E0701C06D073
:10280000FFF788F9A0EB0800B04203D816B1012FFA
:102810001FD021E02068012F15D0806925EA000033
:102820000004000C18D000BF44F8309F84F80DA0BD
:1028300084F80E90216941F02001216184F80C9008
:102840000120BDE8F087406925EA00000004000C83
:10285000EAD12068406901E02068806925EA00002B
:102860000004000CAFD1ECE770B516460D460446E7
:102870001EE02046FFF7C1FE08B1012070BD681CB4
:1028800016D0FFF747F9801BA84200D885B9206809
:102890004069C04300060BD5002044F8300F2021CA
:1028A0006173A073216941F0200121612073E4E785
:1028B00020684069C0430006DBD4002070BD0000E2
:1028C0003EB5002411480094019402940E4984609E
:1028D000016004730475012505614FF460214460B3
:1028E000C161FEF753FE08B1FEF7CCFD0520CDE92E
:1028F0000005694602940548FEF7C6FD002801D090
:10290000FEF7C0FD3EBD000000240140C0040020D1
:102910002DE9F04186B000242748009401940294E8
:102920000394816941F020018161816901F02001F6
:102930000491816941F004018161816901F0040120
:102940000491816941F00801816180691B4F00F0A9
:1029500008000490002280213846FFF7D6F8DFF8FF
:102960006080002201214046FFF7CFF8802001253A
:102970000226CDE90005CDE9024669463846FEF754
:10298000CFFF03960095CDE9015469464046FEF716
:10299000C7FF2803CDE90004694640460294FEF7CC
:1029A000BFFF68038DE8310069464046FEF7B8FF77
:1029B00006B0BDE8F08100000010024000080140B0
:1029C000000C01400D4810B50B4901600C494160F5
:1029D00000214FF480428160C0E9031241618161AE
:1029E000C1610162FFF79CF8002803D0BDE81040E8
:1029F000FEF748BD10BD000000540040F004002068
:102A0000801A0600FEE7000010B500F08DFB0022E2
:102A1000144901280DD0022822D148680B7840685B
:102A200003EB430300EB830003799BB1012B14D02C
:102A30000BE04868037A08785B1E834201DC0A7069
:102A400001E0401C087000F017F8BDE81040962027
:102A5000FEF754BF80684860F1E780688047F2E77E
:102A600010BD0000040000200249486000200870EA
:102A7000704700000400002070B586B000F094F8A4
:102A8000184D002600966868174B3146026830469C
:102A900000F0A2F800241BE001960296039604962B
:102AA000406804EB440150F821302878844201D179
:102AB0000EA200E00EA20FA101A8FDF795FB2007D2
:102AC000010E094B01AA0020009600F085F8641C55
:102AD0006868017AA142DFDC06B0BDE8704000F012
:102AE000ADB9000004000020783900083E00000065
:102AF000200000002573202573000000FEE710B5BC
:102B0000AE2000F0D3F8022000F0D0F8102000F042
:102B1000CDF8402000F0CAF8B02000F0C7F88120BE
:102B200000F0C4F8CF2000F0C1F8A12000F0BEF8FA
:102B3000A62000F0BBF8A82000F0B8F83F2000F075
:102B4000B5F8AD2000F0B2F88B2000F0AFF83320DC
:102B500000F0ACF8C82000F0A9F8D32000F0A6F8E7
:102B6000002000F0A3F8D52000F0A0F8C02000F06D
:102B70009DF8D92000F09AF81F2000F097F8DA208D
:102B800000F094F8122000F091F8DB2000F08EF8AD
:102B9000402000F08BF800F007F800F04FF9BDE896
:102BA0001040AF2000F082B84FF480610148FDF77B
:102BB000FDBB0000BD0000203CB51C78059D203AFF
:102BC000CDE900455D68E41D5B78E408544303FBF0
:102BD000045200F0CBF83CBD2DE9FF4F187859782E
:102BE000C01DC00800254843001D83B01C46174681
:102BF00000F0FF0A2AE07819814600F085F95FEAC3
:102C0000000826D000260AE06168484606FB0A1B39
:102C100042465946FDF759FBF0B1761CF6B2207AD0
:102C2000B042F1D810980090E368B8F1010F20D0BD
:102C3000DDE903012022FFF7BFFFE0684178039838
:102C40000844C0B2039005EB080085B2785D002807
:102C5000D1D107B0BDE8F08F10992078CDE90001FF
:102C60006378DDE903010BF1040200F07FF861787D
:102C7000E5E77A5DDDE90301FFF79EFFE0686D1C83
:102C8000ADB2417803980844C0B20390DEE700007B
:102C900008B54FF0FF3200920B4602467A210248F7
:102CA000FFF702F808BD0000F00400200249487058
:102CB00002210148FFF7ECBF020000202DE9FC4192
:102CC00080460720CDE9000301F00704CD08164631
:102CD00002FA04F01F46C2B223464146284600F0DD
:102CE00089F8002C0CD0601EC0B2CDE90007C4F1F9
:102CF000080026FA00F2681C0023414600F07AF82A
:102D0000BDE8FC812DE9FC4301F007061446CD081F
:102D10009846814601F0070106EB080204FA01F02B
:102D2000099F082A16D90721CDE90017C2B23346F8
:102D30004946284600F05EF808EB06000938C0B2A4
:102D4000CDE90007C6F1080024FA00F2681C002350
:102D5000494607E0521ED1B2CDE90017C2B2334650
:102D60004946284600F046F8BDE8FC832DE9FF4FB0
:102D700082B01D460F989346C70800F007008846AA
:102D80000026019018E0029800240BEB060A00EBE5
:102D900006090DE004FB05F0109B10F80A2008EB73
:102DA000C400C1B209F0FF00FFF788FF641CE4B261
:102DB000BC42EFD3761CF6B2AE42E4D301980028B1
:102DC00015D005FB07F6002408EBC7070DE01098A7
:102DD0000090311902981BF801202044F9B2C0B2CA
:102DE000019BFFF78FFF641CE4B2AC42EFD306B047
:102DF000BDE8F08FF0B50828DDE9056419D2802917
:102E000017D20CB1D243D2B2FF25761C05FA06F6D2
:102E1000C3F10803084F46EA0204DD4007EBC01780
:102E2000044B785CB2432C43AA4320401A701043F1
:102E30007854F0BD00000020BD00002070B5104D9A
:102E400040200024287005F1810600BF04F1B00085
:102E5000C0B2FFF72BFF0220FFF728FF1020FFF77B
:102E600025FF06EBC4118022681CFDF75AFA812168
:102E70000348FFF70DFF641CE4B2082CE6D370BDD5
:102E80003C00002070477047FEF7D2BF30B593B0CA
:102E900028216846FDF7ACFA14210AA8FDF7A8FA24
:102EA000002501200F9510951195010412958DE8CC
:102EB000230004904FF4E010CDE908100224079499
:102EC0006846FFF7F5F908B172B6FEE70AA90F20C8
:102ED00081E831004FF48060CDE90D0502210AA898
:102EE000FFF70AF908B172B6FEE74FF400401190FF
:102EF0000F940FA8FFF78AF8002801D072B6FEE7FA
:102F000013B030BD7047FEE70078010601D4012000
:102F100070470621B1EB501F01D1022070470E21EE
:102F2000B1EB101F01D1032070471E21B1EBD00F70
:102F300001D10420704700207047490050EAC120A9
:102F400018BF04204A0D18BF40F0010040F2FF7284
:102F5000B2EB515F08BF40F00200012808BF052016
:102F600070470907090E002804DB00F1E02080F813
:102F70000014704700F00F0000F1E02080F8141DED
:102F8000704700007FB5FFF70FFE00241A4B1BA20D
:102F9000214620460094FFF71FFEFFF74FFF4FF436
:102FA000FA70FEF7ABFC651E1848FEF747FC294691
:102FB0001648FEF7A5FB1548FEF7E4FA00F03CF9C9
:102FC00000F00EF902460B4611A101A8FDF70CF91D
:102FD000FFF7EAFD0021084B01AA08460094FFF71D
:102FE000FBFDFFF72BFF00F09FF80228DCD1BDE8C6
:102FF0007F40FFF741BD000078390008414443207D
:103000007374617274696E6700000000C004002070
:103010006164633A2566000038B5FFF7C5FD0024FA
:103020000F4B10A2214620460094FFF7D5FD0C4B14
:103030000FA2202100200094FFF7CEFD084B0FA225
:10304000302100200094FFF7C7FDFFF7F7FE00BF17
:1030500000F06AF80228FBD1BDE83840FFF70CBD4C
:1030600078390008657A55492056312E3200000023
:1030700032352E31302E323200000000506F77652D
:10308000726564206279204E6175740008B5FFF79F
:103090008BFD0020084B09A201460090FFF79CFD24
:1030A000FFF7CCFE4FF4FA70FEF728FCFEF74AFF5C
:1030B000BDE80840FFF7E0BC783900085265626F50
:1030C0006F74696E672E2E2E0000000038B5FFF772
:1030D0006BFD00240B4B0CA2214620460094FFF709
:1030E0007BFD084B0CA2102100200094FFF774FD1B
:1030F000FFF7A4FE4FF47A70FEF700FCBDE83840FD
:10310000FFF7BABC783900085365742054696D65BF
:10311000204D6F646500000055736520656E636F18
:103120006465722E2E2E000070B5104C4FF4805541
:1031300029462046FEF7E4FC38B1651429462046AE
:10314000FEF7DEFC48B1002070BD29462046FEF7A0
:10315000D7FC0028F9D0012070BD29462046FEF793
:10316000CFFC0028F9D0022070BD0000000C014007
:10317000FEF766FEFFF78AFEFFF7CAFBFFF7A0FB2C
:10318000FFF720FC0520FEF7B9FBFFF7B8FC054868
:10319000FFF76AFCFFF770FCFFF736FC3220FEF702
:1031A000ADFBF9E71C00002010B500290AD0087813
:1031B000002807D005487844FDF7E8FC002801D036
:1031C000002010BD0248784410BD000046090000F0
:1031D0003E0900000808A0F500114FEA31017047D0
:1031E00043004FEAD30C4FEA3C0C43401FBF40075B
:1031F0000CF1605113F0FE4F70471CF0006F03D1CB
:1032000000200CF0004170470CF0004343EA50707E
:1032100010B540EACC0000F022F800BF0000009298
:103220004FEA0001FFF7D6BF4FF000414FF000001A
:10323000A1F5002170470000B0FA80F310FA03F204
:10324000C3F19D030AD0D90501EB1220530638BF04
:10325000704700F1010008BF20F0010070470EF137
:10326000020E2EF0030E5EF8044B244204D44FEA03
:103270004102B2F17F4F11D84FEA4003B3F17F4FC3
:103280000CD80ED14FEAD07CB2F17F4F0CEB4C0C36
:103290000CF1020C08BF4CEBD17C04E04FF0080CA1
:1032A00001E04FEAD17C0CEB4C0324FA03F404F068
:1032B0000704B4F1040C06D20EEB840CBDE81040F8
:1032C0004CF0010C6047DFE80CF0070802024FF0F9
:1032D0000040A0F5800010BD0846420018BFD2F1A2
:1032E000807288BF00F0004010BDFDF784B9000077
:1032F00000000000000000000000000000000000CE
:1033000000F8000000000000003330000000001052
:103310000C06100C0600000000000000000040C079
:103320007840C0784000043F04043F04040000706B
:1033300088FC08300000001820FF211E0000F00863
:10334000F000E018000000211C031E211E0000F008
:103350000888700000001E21232419272110101650
:103360000E0000000000000000000000000000004F
:1033700000E01804020000000007182040000002CE
:103380000418E00000000040201807000000404042
:1033900080F0804040000202010F010202000000A4
:1033A00000F0000000000101011F01010100000008
:1033B00000000000000080B070000000000000006D
:1033C00000000000000000010101010101010000F6
:1033D000000000000000003030000000000000008D
:1033E000000080601804006018060100000000E082
:1033F00010080810E000000F102020100F0000102F
:1034000010F8000000000020203F20200000007085
:10341000080808887000003028242221300000307D
:103420000888884830000018202020110E00000075
:10343000C02010F8000000070424243F240000F8F6
:103440000888880808000019212020110E0000E0DB
:10345000108888180000000F112020110E0000387D
:103460000808C83808000000003F00000000007095
:10347000880808887000001C222121221C0000E01E
:1034800010080810E0000000312222110F00000097
:1034900000C0C0000000000000303000000000004C
:1034A00000800000000000008060000000000000BC
:1034B0008040201008000001020408102000404055
:1034C0004040404040000404040404040400000898
:1034D000102040800000002010080402010000704D
:1034E00048080808F0000000003036010000C03035
:1034F000C828E810E0000718272423140B00000058
:10350000C038E0000000203C23020227382008F8E1
:10351000888888700000203F202020110E00C030D5
:10352000080808083800071820202010080008F8AC
:1035300008080810E000203F202020100F0008F8A5
:103540008888E8081000203F20202320180008F871
:103550008888E8081000203F200003000000C030E9
:1035600008080838000007182020221E020008F86A
:1035700008000008F808203F210101213F20000831
:1035800008F8080800000020203F2020000000006C
:103590000808F8080800C08080807F00000008F854
:1035A00088C028180800203F20012638200008F88D
:1035B000080000000000203F20202020300008F8F4
:1035C000F800F8F80800203F003F003F200008F80E
:1035D00030C00008F808203F200007183F00E01026
:1035E00008080810E0000F10202020100F0008F835
:1035F00008080808F000203F210101010000E01048
:1036000008080810E0000F18242438504F0008F86C
:10361000888888887000203F2000030C30200070CC
:103620008808080838000038202121221C001808CA
:1036300008F8080818000000203F2000000008F8E3
:1036400008000008F808001F202020201F0008782C
:10365000880000C83808000007380E010000F8088C
:1036600000F80008F800033C0700073C03000818B6
:1036700068808068180820302C03032C302008381C
:10368000C800C83808000000203F200000001008D3
:103690000808C8380800203826212020180000001B
:1036A00000FE020202000000007F40404000000CCB
:1036B00030C000000000000000010638C000000219
:1036C0000202FE000000004040407F0000000000B9
:1036D00004020202040000000000000000000000DC
:1036E00000000000000080808080808080800002D8
:1036F00002040000000000000000000000000000C4
:103700008080808000000019242222223F2008F8B7
:10371000008080000000003F112020110E000000FA
:10372000008080800000000E112020201100000089
:1037300000808088F800000E112020103F2000003B
:10374000808080800000001F22222222130000803F
:1037500080F0888888180020203F2020000000008A
:10376000808080808000006B94949493600008F8BF
:10377000008080800000203F210000203F2000804A
:103780009898000000000020203F2020000000004A
:1037900000809898000000C08080807F000008F8BA
:1037A000000080808000203F24022D30200000088F
:1037B00008F8000000000020203F2020000080804A
:1037C000808080808000203F20003F20003F80805C
:1037D000008080800000203F210000203F2000006A
:1037E000808080800000001F202020201F0080801B
:1037F00000808000000080FFA12020110E0000004A
:10380000008080808000000E112020A0FF8080803A
:1038100080008080800020203F21200001000000E7
:1038200080808080800000332424242419000080BC
:1038300080E0808000000000001F202000008080C9
:10384000000000808000001F202020103F2080808A
:1038500080000080808000010E300806010080801A
:103860000080008080800F300C030C300F0000803F
:103870008000808080000020312E0E31200080806A
:1038800080000080808080818E701806010000809A
:103890008080808080000021302C222130000000B8
:1038A0000000807C020200000000003F4040000059
:1038B0000000FF00000000000000FF000000000208
:1038C000027C800000000040403F00000000000635
:1038D00001010202040400000000000000000000DA
:1038E00010080000EE320008E6B3A2001060020CDF
:1038F000C000F8888888FF8888A8180004047C0322
:1039000080601F80432C102846818000E789B90021
:10391000403C10FF1010404848487F48C8484000CD
:10392000020602FF010100020A1242827F02020027
:10393000E5BE8B00001088C43310545454FF545417
:103940007C101000020100FF0010121212FF121270
:1039500012100000E58AA8004044C44444444010CA
:1039600010FF101010F00000103C131014B840307D
:103970000E014080403F000010100000E8380008B1
:1039800004000000E0380008A43A0008010000002C
:10399000CD300008A03A000801000000852F000883
:1039A000B83A0008010000008D300008B03A000865
:1039B000000000001C000020C03A000800000000C9
:1039C0000C000020CC3A000801000000193000086B
:1039D000010202030405060708090A0B0C0D0E0F6D
:1039E0001010010202030405060708090A0B0C0D5A
:1039F0000E0F101000000000000000000102030480
:103A0000060708090000000001020304024000004C
:103A1000000000A00000000005400000000000C8F9
:103A2000000000000C4000000000409C000000006E
:103A3000194000000020BCBE00000000344000001F
:103A4000BFC91B8E00000004B5400000504BCFD012
:103A50006607E2CF010000006C4100003E8251AADF
:103A6000DFEEA73401000000D9420000DCB5A0E27F
:103A70003A301F97FFFFFFFFB4450000FD25A0C8A7
:103A8000E9A3C14FFFFFFFFFFF3F000000000080E0
:103A900000000000FF3F0000000000800000000068
:103AA000414443005365742074696D650000000053
:103AB0004261636B000000005265626F6F7400002A
:103AC00053657474696E67730000000041626F751E
:103AD000740000004D656E7500000000183B000882
:103AE000000000203C00000028010008543B0008B2
:103AF0003C0000206C0B0000440100081C0000008A
:103B000043000000F8FFFFFF0C0000000E00000063
:103B10000F0000002E000000000000000000000068
:103B200000000000C03A00088839000804000000C6
:103B30001C000020D43A0008B83900080200000038
:103B40000000000001000000100000000000000064
:043B500000127A00E5
:04000005080000ED02
:00000001FF
